:100000000C9486030C94CA030C94CA030C94CA0380
:100010000C94CA030C94CA030C94CA030C94CA032C
:100020000C94CA030C94CA030C94F9250C94CB26A7
:100030000C94991E0C94CA030C94CA030C94CA0322
:100040000C94CA030C94CA030C94CA030C94CA03FC
:100050000C94CA030C94001F0C94CA030C94CA039A
:100060000C94CA030C94CA030C94CA030C94CA03DC
:100070000C94CA030C94CA030C94CA030C94CA03CC
:100080000C94CA030C94CA030C94CA030C94CA03BC
:100090000C94CA030C94CA030C94CA030C94CA03AC
:1000A0000C94CA030C94CA030C94CA038A069006E3
:1000B000940697069B069F06A306A706AC06B00605
:1000C000B406B806BB06BF06C306C706CB06D006F5
:1000D000C514C514FF14FF14361558157B16B81631
:1000E0006315B8160A160A167416B816B816B4169A
:1000F0001716171617161716171617161716171698
:100100001716171617161716171617161716171687
:10011000291637163E1645164F16381738174B173F
:100120004B1741174B174B174B17381738174717F3
:100130004B174B174717302752273D2852273D288A
:100140009427B7273D280C281F2801E0010402044A
:1001500002E0000000F0A135002B00E000E100010A
:100160003000001E00140004001D6129004D001F16
:10017000001A0016001B00E1042A002000080007F6
:1001800000060050002C0021001500090019644FE2
:10019000004A00220017000A0005680000157034AC
:1001A000002D000000006F0000E30001532E00004E
:1001B0000000670000290023001C000B00116800EC
:1001C00000E600240018000D00106452004B0025CA
:1001D000000C000E00360051002800260012000F0F
:1001E0000037002F002B0027001300334238613006
:1001F000004E002A003100E300E500340000000159
:1002000000010001000100010000003A001E022070
:10021000022202010001003B001F02210223020111
:100220000001003C002F0226022F00010001003DCA
:1002300000300227023000010001003E003102358B
:100240000035020000010001000100000001000073
:100250000001000100010000000100000001003F5A
:10026000005200510024020000010040002400213F
:10027000001E00010001004100250022001F003780
:100280000001004200260023002000270001004357
:100290000025022E0231002E00010044004500011D
:1002A0000001000100000046000100010001000102
:1002B0000000000100A60001000100010001000192
:1002C0000001005000010001000100010052005136
:1002D000000100F4000100010001004F000100F5E1
:1002E0000001000100010001000100000001000107
:1002F00000010000000100000001000100010000F9
:1003000000010000000100010001000100010000E7
:100310000001000100010001000100A9000100012D
:100320000001000100AC00AA00B6000100010001BC
:1003300000AB00A800010001000100010001000164
:1003400000010001000100AE000100010000006496
:100350003214643214783C1E1E140A05000000009A
:100360000101010202030405050607090A0B0C0E30
:100370000F1112141517191B1D1F212325282A2CB4
:100380002F313436393B3E414346494C4F52555844
:100390005A5D6164676A6D707376797C7F83868944
:1003A0008C8F9295989B9EA2A5A7AAADB0B3B6B923
:1003B000BCBEC1C4C6C9CBCED0D3D5D7DADCDEE053
:1003C000E2E4E6E8EAEBEDEEF0F1F3F4F5F6F8F945
:1003D000FAFAFBFCFDFDFEFEFEFFFFFFFFFFFFFF45
:1003E000FEFEFEFDFDFCFBFAFAF9F8F6F5F4F3F17A
:1003F000F0EEEDEBEAE8E6E4E2E0DEDCDAD7D5D3D6
:10040000D0CECBC9C6C4C1BEBCB9B6B3B0ADAAA725
:10041000A5A29E9B9895928F8C898683807C797605
:1004200073706D6A6764615D5A5855524F4C494606
:1004300043413E3B393634312F2C2A282523211FB6
:100440001D1B1917151412110F0E0C0B0A090706A4
:100450000505040302020101010000000000000084
:100460000001010101010101010102020202020277
:10047000020202030303030303030304040404044A
:10048000040505050505060606060607070707080D
:100490000808080909090A0A0A0A0B0B0B0C0C0CBC
:1004A0000D0D0D0E0E0F0F0F101011111112121352
:1004B000131414151516161717181819191A1A1BCC
:1004C0001C1C1D1D1E1F1F20202122222324252528
:1004D00026272728292A2B2B2C2D2E2F2F3031325F
:1004E00033343536363738393A3B3C3D3E3F404170
:1004F000424344464748494A4B4C4D4F5051525352
:10050000555657585A5B5C5E5F6062636466676904
:100510006A6C6D6E707173747678797B7C7E808185
:10052000838486888A8B8D8F91929496989A9B9DCE
:100530009FA1A3A5A7A9ABADAFB1B3B5B7B9BBBDDB
:10054000BFC1C4C6C8CACCCFD1D3D6D8DADCDFE1AC
:10055000E4E6E8EBEDF0F2F5F7FAFCFF16034500F0
:10056000720067006F0044006F00780020004500B3
:100570005A00000016034500720067006F00440037
:100580006F007800200045005A00000004030904B1
:1005900009026D00040100A0FA0904000001030132
:1005A0000100092111010001224000070581030813
:1005B000000A0904010001030102000921110100E0
:1005C00001224D000705820308000A090402000108
:1005D00003000000092111010001223600070583F4
:1005E0000308000A090403000103000000092111A7
:1005F00001000122390007058403200001120110C7
:100600000100000008EDFE071301000102000105D2
:10061000010906A101050719E029E7150025019543
:1006200008750181020508190129059505750191D3
:10063000029501750391010507190029F715002599
:100640000195F875018102C005010980A1018502AB
:100650001601002603001A81002A830075109501F7
:100660008100C0050C0901A1018503160100269C2B
:10067000021A01002A9C02751095018100C0050133
:100680000902A1010901A1000509190129051500A7
:10069000250195057501810295017503810105010B
:1006A000093009311581257F9502750881060938C1
:1006B0001581257F950175088106050C0A380215FC
:1006C00081257F950175088106C0C005010906A135
:1006D00001050719E029E715002501950875018135
:1006E000029501750881010508190129059505750F
:1006F0000191029501750391010507190029FF1564
:100700000026FF00950675088100C00011241FBE59
:10071000CFEFDAE0DEBFCDBF04B603FE24C0809188
:10072000290390912A03A0912B03B0912C038730C9
:10073000904BA740B04BB9F41092290310922A03B2
:1007400010922B0310922C0314BE84B7877F84BFB2
:1007500088E10FB6F89480936000109260000FBE9D
:10076000E0E0FFE3099511E0A0E0B1E0EAE1F4E5A3
:1007700002C005900D92A23DB107D9F723E0A2ED8A
:10078000B1E001C01D92A932B207E1F70E944323F4
:100790000C940B2A0C9400001092B9008AE080930C
:1007A000B800089594EA9093BC009091BC0097FF24
:1007B000FCCF9091B900987F983021F0903111F0E2
:1007C00081E008958093BB0084E88093BC00809111
:1007D000BC0087FFFCCF8091B900887F883111F081
:1007E000803471F780E0089584E98093BC008091A3
:1007F000BC0084FDFCCF08958093BB0084E8809307
:10080000BC008091BC0087FFFCCF9091B900987F1D
:1008100081E0983209F480E0089584E88093BC0078
:100820008091BC0087FFFCCF8091BB00089580B30E
:100830008C7080BB81B3836F81BB0895809101016F
:10084000811115C080E40E94D203809301018111BF
:100850000CC082E10E94FC0380930101811105C05C
:100860008FEF0E94FC03809301010E94F40384B186
:10087000807F84B985B1807F85B98AB1837F8AB949
:100880008BB1837F8BB93E98469808950C94900560
:100890000E94800A809301010E941E040E94170496
:1008A000E1EEF1E0A3EDB1E011921D9281E0EF3EA7
:1008B000F807D1F70C94AE070E94800A80930101DB
:1008C0000E941E040E941704E1EEF1E0A3EDB1E0E6
:1008D00011921D9281E0EF3EF807D1F708958F92B3
:1008E0009F92BF92CF92DF92EF92FF920F931F934E
:1008F000CF93DF931F92CDB7DEB78091010188239C
:1009000079F08091D2018F5F8093D201811108C06C
:100910000E94800A80930101811102C00E94120A84
:1009200003ED11E0812C912CEE24E394F12CDD24D5
:10093000D39495E0C92E282D273030F58091010100
:10094000811142C080E489820E94D2038093010118
:100950002981811114C082E10E94FC03809301016E
:10096000298181110CC0C701082C01C0880F0A948D
:10097000EAF780950E94FC03809301012981298375
:100980000E94F403298120C02A30A1F028F42830E5
:1009900059F0293061F005C02C3089F070F02D300D
:1009A00089F0209A289810C0219A29980DC0229A7F
:1009B0002A980AC0239A2B9807C0529A01C0539ACA
:1009C0005B9802C03E9A469830EA3A95F1F7273094
:1009D00018F580910101811144C080E40E94D20386
:1009E00080930101882311F0B12C12C083E10E9491
:1009F000FC03809301018111F7CF81E40E94D203AF
:100A0000809301018111F0CF0E940D04B82EB094A3
:100A10000E94F4038B2D26C08FB181708D25799BA8
:100A200002C090E001C092E0892B7C9B02C090E064
:100A300001C094E0892B7D9B02C090E001C098E04A
:100A4000892B7E9B02C090E001C090E1892B9FB171
:100A50009095991F9927991F9295990F907E892BB0
:100A600001C080E0F8019081981719F08083C0924E
:100A700000010E941E04FFEF8F1A9F0A0F5F1F4F95
:100A80003EE08316910409F056CF8091000188233F
:100A9000A1F0815080930001882329F085E08A9598
:100AA000F1F700000AC0A1EEB1E0E3EDF1E08191C1
:100AB0008D9331E0E13EF307D1F70E94B00781E06A
:100AC0000F90DF91CF911F910F91FF90EF90DF90EA
:100AD000CF90BF909F908F900895E82FF0E0EF5156
:100AE000FE4F808108950895662319F0613069F002
:100AF00013C0FC018281882321F085EE0E946013DF
:100B00000BC085EE0E94281407C0FC018281882357
:100B100019F08AE491E0089580E090E00895089546
:100B200060917602709177028091780290917902BB
:100B30000E94C41D56985E9825982D9826982E9848
:100B400027982F98813029F0823029F4269A2E9AFE
:100B500002C0259A2D9A80910002882309F468C06A
:100B60008091FE019091FF010E94D71E893C910562
:100B700008F45EC0109200020E94C5098091F40141
:100B80009091F5014A9721F58091F6019091F70136
:100B9000892BF1F48091F8019091F901892BC1F42E
:100BA0008091FA019091FB01892B91F48091FC01D5
:100BB0009091FD01892B61F482EE0E9460138DE318
:100BC0000E9460138DE30E94281482EE0E94281474
:100BD0008091F4019091F501429751F58091F601D1
:100BE0009091F701892B21F58091F8019091F901FD
:100BF000892BF1F48091FA019091FB01892BC1F4CA
:100C00008091FC019091FD01892B91F480EE0E946E
:100C1000601381EE0E94601382E10E94601382E102
:100C20000E94281481EE0E94281480EE0C9428144F
:100C3000089581E0089581E008950C941B060E94B8
:100C400026172FEF84E39CE0215080409040E1F78D
:100C500000C000000C94261F0F931F93CF93DF93C7
:100C60008C01FC01C081D181CE010E944B1CBE01D0
:100C70000E94B807EC01B8010E941D06882309F400
:100C800067C1B801CE010E94C609882309F460C17A
:100C9000B801CE010E94C10B882309F459C1C633A3
:100CA000F0E7DF0741F4F8018281882309F450C19D
:100CB0000E94FF0D4DC1C73380E7D80708F0BFC0C1
:100CC000C53190E7D90708F0A3C0C230E0E7DE07DE
:100CD00008F478C0F8018281882309F47FC00E945B
:100CE000381E811102C00E94171E0E944B1E90E008
:100CF00090931B0380931A03FE01E350F047E23107
:100D0000F10520F4EA5AFF4F0C94BD2980911A0393
:100D1000816003C080911A03826080931A034BC0E4
:100D200080911A038460F9CF80911A0313C08091D7
:100D30001A038061F2CF80911A038062EECF809116
:100D40001A038064EACF80911A038068E6CF80910D
:100D50001A0384608860E1CF80911A038E7FDDCF13
:100D600080911A038D7FD9CF80911A038B7FD5CFC5
:100D700080911A0313C080911A038F7ECECF809189
:100D80001A038F7DCACF80911A038F7BC6CF8091C3
:100D90001A038F77C2CF80911A038B7F877FBDCFD5
:100DA00090911A0397FB882780F921E0822780FB26
:100DB00097F990931A0380911A030E944F1E0E9484
:100DC0002617C6C0C115F0E7DF0779F0C130D0475C
:100DD000A1F081E08093F1018093F201C801DF91DD
:100DE000CF911F910F910C941906F80182818823ED
:100DF00009F4AEC00E941F06ABC0F80182818823AF
:100E000009F4A6C08091A30281608093A302A0C0D0
:100E1000C43390E7D90741F4F8018281882309F4AB
:100E200097C00E94100F94C0C533D04791F6F801C7
:100E30008281882309F48CC00E94060F89C0CA33BE
:100E4000F0E7DF0741F4F8018281882309F480C0CC
:100E50000E945B0E7DC0CB3380E7D807D8F4F80141
:100E60008281C833F0E7DF0731F4882309F470C0CA
:100E70000E94370E6DC0C933D04730F4882309F47F
:100E800067C00E94180E64C0882309F461C00E94E4
:100E9000490E5EC0CC33E0E7DE0719F5F801828128
:100EA000882351F01092F1010E94CB1E9093F00123
:100EB0008093EF0182E02AC08091F10181110FC07F
:100EC0008091EF019091F0010E94D71E883C91051E
:100ED00030F486E20E94601386E20E94281482E0C9
:100EE0001DC0CC33F0E7DF07E0F0CD33D04709F089
:100EF00070CFF8018281882361F01092F2010E9484
:100F0000CB1E9093F0018093EF0180E20E94771452
:100F10001FC08091F201882359F080E20E947E1464
:100F200017C0F8018281882399F00E94760E10C0C4
:100F30008091EF019091F0010E94D71E883C9105AD
:100F400060F787E20E94601387E20E942814E5CFD1
:100F500080E0DF91CF911F910F9108950C946A0A60
:100F60000C94460408950C94B2070C94B3070895AA
:100F700096E0799FF001112494E5899FE00DF11D21
:100F80001124E60FF11DEE0FFF1FE95AFE4F859168
:100F900094910895880F991F8D5A9E4FFC01859159
:100FA000949108950E94B8070E944809811520E491
:100FB0009207B0F5811540E3940708F0DDC0803E4C
:100FC0009105D8F4803C910508F06BC0883A9105F2
:100FD00078F4853A910508F067C08130910509F4ED
:100FE00056C108F40DC18430910508F050C108C104
:100FF0008D3B910508F463C003C18F3F910509F053
:1010000048F4803F910508F0B1C0883E910508F48E
:101010003EC1F6C0811520E2920708F0A9C00895EC
:10102000811543E5940790F4811522E5920708F0B5
:10103000C7C0811541E5940708F0BDC0811520E5C2
:10104000920708F09CC09F70906A0895811545E54D
:101050009407D0F4811524E5920708F0C6C0282F24
:101060002695269540E2249F90011124AC014370FF
:10107000552781E090E002C0880F991F4A95E2F75A
:10108000822B932B9A680895811546E5940708F4FE
:10109000B1C09C0130562115304108F0B1C09F709D
:1010A000ADC0805C910965C0853A910509F4ABC07B
:1010B000863A910509F4AAC083E890E40895883A35
:1010C000910509F4A6C0893A910509F4A5C08A3AA8
:1010D000910509F4A4C08B3A910509F4A3C08C3A98
:1010E000910509F4A2C08B3B910509F4A1C08C3B8A
:1010F000910509F4A0C08D3A910509F49FC0803B89
:10110000910509F49EC08E3A910509F49DC08F3A6D
:10111000910509F49CC0813B910509F49BC0823B79
:10112000910509F49AC0833B910509F499C0843B69
:10113000910509F498C0853B910509F497C0863B59
:10114000910509F496C0873B910509F495C0883B49
:10115000910509F494C0893B910509F493C08A3B39
:10116000910509F092C08AE296E408959065089589
:101170009F700E94CA0708959927906C0895482F80
:10118000437021E030E002C0220F331F4A95E2F79E
:101190003C68AC0164E0569547956A95E1F7437069
:1011A000342B8F708695869540E2849FC001112470
:1011B000822B932B0895982F8827816F906A08952A
:1011C000282F2695269540E2249F90011124AC01FA
:1011D0004370552781E090E002C0880F991F4A951F
:1011E000E2F7822B932B9C680895982F8827846FB1
:1011F000906A08958F719927982F88279062089593
:1012000080E090E0089581E890E4089582E890E419
:10121000089582EE94E4089589EE94E408958AEEA8
:1012200094E4089585EB94E4089586EB94E408959E
:1012300083EB94E4089584EB94E4089587EB94E4BD
:1012400008958CEC94E408958DEC94E4089583E87B
:1012500095E408958AE895E4089582E995E408956F
:1012600084E995E4089581E296E4089583E296E4A2
:10127000089584E296E4089585E296E4089586E26E
:1012800096E4089587E296E4089580E094E4089552
:101290008238910549F1B0F48133910509F459C0C0
:1012A00048F48932910509F44FC08A32910509F456
:1012B00055C008958533910509F441C089339105DE
:1012C00099F00895833E910531F138F4803E9105FF
:1012D00091F0823E9105A9F00895863E910501F1B5
:1012E000873E910539F1089520911A0320FD3BC0F6
:1012F00021FD39C0089580911A0380FF34C089E32D
:1013000041C080911A0382FF32C080911A0384FF8A
:101310002CC080E037C080911A0382FD28C0F5CF31
:1013200080911A0383FF25C080911A0384FDF1CFB9
:1013300087EE28C080911A0383FD1BC0F5CF8091F2
:101340001A0385FF18C019C080911A0385FF15C0C4
:1013500012C080911A0386FF12C013C080911A0335
:1013600086FF0FC00CC080EE0DC083EE0BC082EE76
:1013700009C086EE07C085E305C089E203C081E3AA
:1013800001C08AE290E0089508950895CF93DF9315
:10139000EC01FB018281811102C081E040C080919B
:1013A0000002811125C0C531D047B9F70E94C40998
:1013B00081E0809300020E94CB1E9093FF018093F6
:1013C000FE011092F3011092F5011092F4011092B7
:1013D000F7011092F6011092F9011092F8011092A3
:1013E000FB011092FA011092FD011092FC0116C04F
:1013F0008091FE019091FF010E94D71E883C9105CB
:1014000060F68091F301E82FF0E0EE0FFF1FEC5043
:10141000FE4FD183C0838F5F8093F30180E0DF9123
:10142000CF91089556985E9825982D9826982E98D5
:1014300027982F988FEF90E09093890080938800F1
:1014400090938B0080938A0090938D0080938C0002
:10145000259A2D9A2FEF80E792E02150804090400E
:10146000E1F700C00000269A2E9A2FEF80E792E065
:10147000215080409040E1F700C00000279A2F9A49
:101480002FEF80E792E0215080409040E1F700C0CC
:10149000000025982D982FEF80E792E021508040A2
:1014A0009040E1F700C0000026982E982FEF80E7CB
:1014B00092E0215080409040E1F700C00000279862
:1014C0002F9856985E9825982D9826982E982798AC
:1014D0002F98089589EA8093800089E080938100A5
:1014E00024982C983F988AB18F7C8AB96E98479A35
:1014F0008BB180638BB9769A0E94120A0C948F0587
:1015000080E2809301018091010281110EC00E944E
:10151000CC0381E0809301022FEF83ED90E3215013
:1015200080409040E1F700C0000080E40E94D203B8
:101530008093010181112EC00E94FC038093010160
:10154000811128C00E94FC0380930101811122C0F7
:101550008FE30E94FC038093010181111BC00E9454
:10156000F40380E40E94D20380930101811112C030
:101570008CE00E94FC038093010181110BC00E944A
:10158000FC0380930101811105C08FE30E94FC03DD
:10159000809301010E94F403809101010895282F96
:1015A000882339F090E02A3010F44D96089506977C
:1015B000089587E290E00895E0910301F09104011D
:1015C00080818093D10281FF03C081EE0E942814A4
:1015D0008091D10285FF03C085EE0E94281480917E
:1015E000D10280FF03C080EE0E9428148091D102B6
:1015F00084FF03C084EE0E9428148091D10282FFF0
:1016000003C082EE0E9428148091D10286FF03C09D
:1016100086EE0E9428148091D10283FF03C083EEDE
:101620000E9428148091D10287FF03C087EE0E9498
:101630002814809102028130A1F078F0823011F1FB
:10164000843049F586EE0E94601386EE0E942814CD
:1016500088E10E94601388E11CC082EE0E94601342
:101660001AC080EE0E94601381EE0E94601388E130
:101670000E94601388E10E94281481EE0E942814C1
:1016800080EE07C082EE0E94601387E50E9460131F
:1016900087E50E9428148FE39CE90197F1F700C0C9
:1016A0000000089580910202813029F010F082300C
:1016B00041F482EE04C08CE20E9460138CE20E942E
:1016C00028148091D10281FF03C081EE0E94601333
:1016D0008091D10285FF03C085EE0E946013809146
:1016E000D10280FF03C080EE0E9460138091D1027E
:1016F00084FF03C084EE0E9460138091D10282FFB8
:1017000003C082EE0E9460138091D10286FF03C065
:1017100086EE0E9460138091D10283FF03C083EEA6
:101720000E9460138091D10287FF03C087EE0C9462
:1017300060130895FF920F931F93CF93DF938C0153
:10174000CCE0D0E0C8010C2E02C0969587950A9493
:10175000E2F7282F2F70F22E822F0E94CF0A0E94CC
:1017600060138F2D0E94CF0A0E9428142497CC3F2B
:101770008FEFD80739F7DF91CF911F910F91FF902D
:101780000895CF93DF93EC01C13080E8D80760F073
:10179000FB018281882341F00E94DC0ACE019F7701
:1017A0000E949A0B0E94520B81E0DF91CF91089525
:1017B000882319F05198599A02C0519A5998509813
:1017C000589A95E09A95F1F70000509A589895E04C
:1017D0009A95F1F70000882311F0519A599885E005
:1017E0008A95F1F7000008958BB18C7F8BB95098E2
:1017F000589A5198599A85E08A95F1F70000089512
:101800008AB18C7F8AB985E08A95F1F70000519AF8
:10181000599885E08A95F1F70000509A589885E02C
:101820008A95F1F7000008955098589A85E08A95B6
:10183000F1F700005198599A85E08A95F1F7000078
:101840000895CF93DF93D82FC8E08D2F80780E9422
:10185000D80BDD0FC150C9F780E00E94D80B85E09E
:101860008A95F1F7000085E08A95F1F7000080E0A5
:10187000DF91CF9108953BB1242F209523233BB1D5
:10188000342B4FB7F894FC01680F791FE617F70760
:1018900089F0819198E03BB9000000C087FF2BB927
:1018A000880F000000C000C000C02BB900C09A958E
:1018B00091F7ECCF4FBF0895AF92BF92CF92DF92D6
:1018C000EF92FF920F931F93CF93DF938C01EB0165
:1018D000AFB6B090BC00F8948091BC008B7F809331
:1018E000BC000E94F40B0E94000C84E80E94210CB2
:1018F000CC0FDD1FCC0FDD1F78016E01C00ED11E95
:10190000EC14FD0431F0F70181917F010E94210C5C
:10191000F7CF0E94140CAFBEB092BC00579A40E8BB
:10192000BE01C801DF91CF911F910F91FF90EF9001
:10193000DF90CF90BF90AF900C943B0CDF92EF9272
:10194000FF920F931F93CF93DF93662309F44AC04E
:10195000E42FF0E0AFEFB0E0A61BB109BF01A69FF6
:10196000E001A79FD00DB69FD00D1124FD2FDD2ED5
:101970007B01ED1AF1080CE310E0B8010E949529F3
:10198000EB01BC01E69EC001E79E900DF69E900D16
:101990001124B8010E949529C230D105B1F040F45C
:1019A000209779F0219709F58F2FD42E461B20C060
:1019B000C430D10599F068F02597B9F4842F861BBF
:1019C00017C08F2FD62EDF0E13C0862F8F0FD42E69
:1019D00003C0D42ED61A842F4F2F0AC0842F462F2F
:1019E0004F0F06C0842FD42E03C080E0D12C40E0DE
:1019F000E42FF0E0E45AFB4F4491ED2DF0E0E45A7F
:101A0000FB4F9491E82FF0E0E45AFB4FE491D901A9
:101A100011964C9311979C931296EC93DF91CF9172
:101A20001F910F91FF90EF90DF90089588E090E074
:101A30000C94CB29AB01BC0188E090E00C94E9291F
:101A400083E08093D2021092D3028FEF8093D4026E
:101A50008093D5026091D2027091D3028091D4021A
:101A60009091D5020C941A0D8091D20280FF06C08D
:101A70006FE070E08AED92E00C945C0CECEDF2E02B
:101A8000DF0111971C9211971C921082349683E00B
:101A9000E831F807A9F7ECCFECEDF2E0DF011197A0
:101AA0008C9311976C934083349693E0E831F90757
:101AB000A9F70C94340DCF92DF92EF92FF920F931F
:101AC0001F93CF93DF9300D000D0CDB7DEB7F82EB1
:101AD000C92ED62EE42E0091D2021091D30220916D
:101AE000D4023091D5020093D6021093D7022093EE
:101AF000D8023093D9028091D20280FF1EC09E018D
:101B00002F5F3F4F8F2D0E949E0C8091D602F0FADE
:101B100087F98093D602F6942091D70220782F2956
:101B2000C0FA27F92093D702D092D802E092D902C6
:101B30004B8169818A810E944C0D0F900F900F900C
:101B40000F90DF91CF911F910F91FF90EF90DF9059
:101B5000CF9008950F931F93CF93DF93C82F192F22
:101B6000062FD42F8091D20280FF44C0982F9E77F9
:101B7000923029F48C2F912F0E945B0D1AC0282FD0
:101B800026952F739EE3920F9F73943018F4D09193
:101B9000D5020FC0265C2F73293058F4881F882780
:101BA000881F1091D302C12FCC0FC82B17FB112710
:101BB00010F98091D202C0FB87F98093D202C695BA
:101BC0008091D30280788C2B10FB87F98093D3020D
:101BD0000093D402D093D5026091D2027091D302C7
:101BE0008091D4029091D502DF91CF911F910F91F6
:101BF0000C941A0DDF91CF911F910F9108952091B0
:101C0000D202221F2227221F3091D302432F440FDA
:101C1000842F822B37FB992790F90C9668E671E0A8
:101C20000E94A9294091D5026091D4020C94AA0D7A
:101C30002091D202221F2227221F3091D302432F4C
:101C4000440F842F822B37FB992790F98C30910514
:101C50001CF4845A9E4F01C00C9768E671E00E9404
:101C6000A9294091D5026091D4020C94AA0D8091CB
:101C7000D202881F8827881F9091D302292F220F14
:101C800097FB992790F94091D5026FEF822B0C9426
:101C9000AA0D8091D202881F8827881F9091D302B5
:101CA000292F220F97FB992790F94091D50260E0E8
:101CB000822B0C94AA0D4091D502842F90E0843F92
:101CC000910514F4445F01C04FEF8091D202881F48
:101CD0008827881F9091D302292F220F97FB9927DD
:101CE00090F96091D402822B0C94AA0D4091D502F8
:101CF000842F90E00C9714F04C5001C040E080918C
:101D0000D202881F8827881F9091D302292F220F83
:101D100097FB992790F96091D402822B0C94AA0D1D
:101D20009091D20290FF3DC09178811102C09260E3
:101D300003C0893120F090639093D20205C08F7365
:101D4000880F892B8093D2026091D2027091D302C6
:101D50008091D4029091D5020E941A0D8091D202F6
:101D6000982F9E77923019F41092180209C0982F7C
:101D70009695925C9F73963118F491E090931802B7
:101D8000881F8827881F9091D302292F220F97FB45
:101D9000992790F94091D5026091D402822B0C943E
:101DA000AA0D08958091A30281608093A30281E02F
:101DB000809319020E94381E811104C00E94171ED0
:101DC0000E94200D0E94160D6093D2027093D302E0
:101DD0008093D4029093D5026E7761F40E94200D17
:101DE0000E94160D6093D2027093D3028093D402A6
:101DF0009093D50281E0809318028091D20280FFF7
:101E000004C086958F730C94900E08958091D20231
:101E100086958F738F5F893108F081E00C94900E66
:101E20008091D202982F909590FB80F98093D202F6
:101E30006091D2027091D3028091D4029091D50228
:101E40000E941A0D8091D20280FF04C086958F7384
:101E50000C94900E109218022FEF80E792E0215020
:101E600080409040E1F700C000000C94340DCF9307
:101E7000C82F80911602909117020E94D71EEC2F56
:101E8000F0E0E85AFC4FE491F0E08E179F0710F164
:101E90000E94CB1E9093170280931602E0911502C8
:101EA000F0E0E45AFC4F44918091D202881F8827C9
:101EB000881F9091D302292F220F97FB992790F921
:101EC0006091D402822B0E945B0D809115028F5F7E
:101ED00080931502CF910895CF93C82F809113025C
:101EE000909114020E94D71EEC2FF0E0EB5AFC4FA9
:101EF000E491F0E08E179F07E8F00E94CB1E9093CC
:101F00001402809313024091D5026091D402809113
:101F10001102909112020E945B0D8091110290912A
:101F20001202019668E671E00E94952990931202D0
:101F300080931102CF910895DF92EF92FF920F9359
:101F40001F93CF93DF93D82E80910F0290911002B0
:101F50000E94D71EED2DE695F0E0EB5AFC4FE49180
:101F6000F0E08E179F07E8F10E94CB1E90931002BD
:101F700080930F020AED12E0C0E0D0E088E6E82E80
:101F8000FF24F39480910D0290910E028C0F9D1FFF
:101F9000B7010E94952998014091D5026091D40221
:101FA0000E949E0C68960C5F1F4FC83681E0D807D0
:101FB00049F70E94340D20910D0230910E02D0FE9F
:101FC0000AC0C9010196BE010E94952990930E0294
:101FD00080930D0206C02150310930930E022093E8
:101FE0000D02DF91CF911F910F91FF90EF90DF9045
:101FF00008958F929F92AF92BF92CF92DF92EF920D
:10200000FF920F931F93CF93DF93C82F80FD03C0E0
:102010009924939402C099249A9480910B029091F0
:102020000C020E94D71EC695EC2FF0E0EE5AFC4F32
:10203000E491F0E08E179F0708F469C00E94CB1E60
:1020400090930C0280930B022AEDE22E22E0F22EF6
:102050000CED12E0C0E0D0E037E0A32EB12CF80187
:1020600031971082F7011082F801108297E0C92E93
:10207000D12C812C80910A02880D87FD815F9927E0
:1020800087FD9095C817D907E9F42091D5022C9DBA
:10209000C0012D9D900D1124B5010E94A929462F44
:1020A0008091D202881F8827881F9091D302592FD0
:1020B000550F97FB992790F997016091D402852BD2
:1020C0000E949E0C890CF1E0CF1AD108C114D104F2
:1020D00089F6219684E0E80EF11C0C5F1F4FCF308B
:1020E000D10509F0BCCF0E94340D80910A0291E025
:1020F000991206C0811102C08EE007C0815005C050
:1021000090E00196BE010E94A92980930A02DF9106
:10211000CF911F910F91FF90EF90DF90CF90BF90E4
:10212000AF909F908F9008959F92AF92BF92CF9261
:10213000DF92EF92FF920F931F93CF93DF93CDB770
:10214000DEB7EC970FB6F894DEBF0FBECDBF182FE9
:1021500080910802909109020E94D71EE12FF0E0C1
:10216000E15BFC4FE491F0E08E179F0708F491C00B
:102170000E94CB1E90930902809308028E010F5F8C
:102180001F4F5E0183E0A80EB11CE12CF12C680109
:10219000F50131971082F8011082F5011082912C1F
:1021A0009091020180910702999E800D112487FD74
:1021B00004C08F301CF08EE001C080E0992787FDBD
:1021C0009095E816F906A1F48091D202881F88271D
:1021D000881F9091D302592F550F97FB992790F99B
:1021E00098014091D5026091D402852B0E949E0CEB
:1021F0009394F7E09F12D4CF8FEFE81AF80A0C5FA0
:102200001F4FE4E0AE0EB11CFFE0EF16F10409F041
:10221000BFCF2CED32E009E010E05FE0E52EF12CBD
:10222000C801B7010E94A929FC01D9011197EE0F3D
:10223000FF1FEE0FFF1FEC0DFD1D81818C93119789
:1022400080818C938281F90180830F5F1F4F2C5F07
:102250003F4F0831110521F70E94340D9091020182
:1022600080910702913049F48A3F2CF489EF8093E2
:1022700007028FEF08C081500AC086313CF085E12B
:102280008093070281E08093020103C08F5F8093F7
:102290000702EC960FB6F894DEBF0FBECDBFDF91FC
:1022A000CF911F910F91FF90EF90DF90CF90BF9053
:1022B000AF909F900895DF92EF92FF920F931F933C
:1022C000CF93DF9380910502909106020E94D71E62
:1022D000883E9340F0F10E94CB1E909306028093BB
:1022E0000502809103029091040201968170992762
:1022F00090930402809303020AED12E02FE0289FDE
:102300007001299FF00C1124C0E0D0E060E5D62ECA
:10231000CE018E0D9F1D8170992798014091D502A5
:102320006091D402FC01DE9EC001DF9E900D11245D
:102330000E949E0C2F960C5F1F4FC13ED10541F7A6
:10234000DF91CF911F910F91FF90EF90DF900C9450
:10235000340DDF91CF911F910F91FF90EF90DF909F
:10236000089580911802882371F18091D202869598
:102370008F739EE3980F9F73943018F482500C94DF
:10238000370F9AE3980F9F73933018F486500C948C
:102390006C0F97E3980F9F73963018F489500C9444
:1023A0009C0F91E3980F9F73963018F48F500C9404
:1023B000F90F9BE2980F9F73933018F485510C949A
:1023C00094100C945B11089590931F0280931E0249
:1023D0000895E0911E02F0911F02309721F00190C4
:1023E000F081E02D099480E00895E0911E02F091C3
:1023F0001F02309721F00280F381E02D09940895A7
:10240000E0911E02F0911F02309721F00480F581C7
:10241000E02D0994089520911C0230911D0282172D
:10242000930771F090931D0280931C02E0911E02AD
:10243000F0911F02309721F00680F781E02D09947A
:10244000089520911A0230911B028217930771F0B0
:1024500090931B0280931A02E0911E02F0911F02DA
:10246000309721F00084F185E02D099408950895B6
:102470000C9437120E94C21E0E9448040E94491FF9
:102480000C94D20ECF92DF92EF92FF920F931F9394
:10249000CF93DF93CDB7DEB72B970FB6F894DEBF9F
:1024A0000FBECDBF0E946F0431E2E32E32E0F32E67
:1024B00000E010E0C02E802F0E946D05F701D19042
:1024C0007F01D826B1F40F5F1F4F0E30110591F731
:1024D0008FEF89838A831B820E94CB1E8160782FB5
:1024E0009D838C8349815A816B818D810E94211348
:1024F00041C09091A30291FF04C08B870E94730595
:102500008B8520E030E04D2D50E0922FBA01022E55
:1025100002C0759567950A94E2F760FF25C02E8387
:10252000CF82EE24E394F12C02C0EE0CFF1C9A95AE
:10253000E2F790E08E219F2121E0892B09F420E031
:1025400028870E94CB1E8160782F9A8789874E81C9
:102550005F8168858A850E942113F801EF5DFD4F38
:1025600080818E25808306C02F5F3F4F2630310546
:1025700061F6A9CF0E94DB20109120020E94E91190
:102580001817A1F00E94E911809320022B960FB634
:10259000F894DEBF0FBECDBFDF91CF911F910F9199
:1025A000FF90EF90DF90CF900C94B5072B960FB66D
:1025B000F894DEBF0FBECDBFDF91CF911F910F9179
:1025C000FF90EF90DF90CF900895DC0111964C9131
:1025D00011975C91852F90E021E030E001C0220F3F
:1025E0005A95EAF712966C91129750E0662319F00B
:1025F00060913D0205C0FA01E15DFD4F60816223FB
:102600006623B9F036E0349FF001359FF00D1124B8
:10261000E80FF91FEE0FFF1FEB5EFE4F80819181E7
:102620008D939C93FA01E15DFD4F8081822B808325
:102630000895FA01E15DFD4F2095808128232083D4
:102640000895CF93DF93CDB7DEB72B970FB6F894ED
:10265000DEBF0FBECDBF4F83588769877A878B87D0
:102660008A859B85892B31F05F3F11F080E003C0A4
:102670004F3FE1F781E0811104C0CE0107960E942F
:10268000E512DE01119686E0FD0111928A95E9F7C7
:1026900085E0FE01379601900D928A95E1F7498118
:1026A0005A816B817C818D819E810E94F0192B96CD
:1026B0000FB6F894DEBF0FBECDBFDF91CF91089566
:1026C000882309F4C4C0823859F40E94E91181FDBD
:1026D000BEC089E30E94CB1C0E94951D89E30CC0FB
:1026E000833871F40E94E91180FDB1C083E50E9436
:1026F000CB1C0E94951D83E50E940B1D0C94951D1B
:10270000843859F40E94E91182FDA1C087E40E9437
:10271000CB1C0E94951D87E4EFCF9CEF980F913A58
:1027200018F40E94CB1CEACF90E2980F983050F436
:10273000877091E001C0990F8A95EAF7892F0E946E
:102740004C1DDCCF9BE5980F933070F4853A29F04F
:10275000863A31F482E890E005C081E890E002C05A
:1027600083E890E00C940B1298E5980F953108F0EF
:102770006EC0883A61F1893A69F18A3A71F18B3A0F
:1027800079F18C3A81F18B3B89F18C3B91F18D3A57
:1027900099F1803BA1F18E3AA9F18F3AB1F1813BD9
:1027A000B9F1823BC1F1833BC9F1843BD1F1853B57
:1027B000D9F1863BE1F1873BE9F1883BF1F1893BB7
:1027C000F9F18A3B09F03FC08AE292E03EC082EE16
:1027D00090E03BC089EE90E038C08AEE90E035C0D2
:1027E00085EB90E032C086EB90E02FC083EB90E069
:1027F0002CC084EB90E029C087EB90E026C08CECE5
:1028000090E023C08DEC90E020C083E891E01DC0F3
:102810008AE891E01AC082E991E017C084E991E06A
:1028200014C081E292E011C083E292E00EC084E223
:1028300092E00BC085E292E008C086E292E005C01B
:1028400087E292E002C080E090E00C9421120895AB
:10285000882309F44BC0823859F40E94E91181FFA2
:1028600045C089E30E94CB1C0E94951D89E30CC0E2
:10287000833871F40E94E91180FF38C083E50E941B
:10288000CB1C0E94951D83E50E940B1D0C94951D89
:10289000843859F40E94E91182FF28C087E40E941D
:1028A000CB1C0E94951D87E4EFCF9CEF980F913AC7
:1028B00058F390E2980F983050F4877091E001C07F
:1028C000990F8A95EAF7892F0E94521DDFCF9BE569
:1028D000980F933020F480E090E00C940B12885A0B
:1028E000853120F480E090E00C9421120895882333
:1028F00021F00E944C1D0C94951D0895882321F011
:102900000E94521D0C94951D08958F929F92BF9224
:10291000CF92DF92EF92FF920F931F93CF93DF93AB
:1029200000D0CDB7DEB74C01472FFC01E580E29423
:102930009FE0E922F280FF2031F079836A830E94D0
:10294000691D6A81498149836A830E94C41C498147
:102950006A81882389F0FF2079F080E2860F883031
:1029600058F082E00E94AD1C0E94C41CBB24B394AA
:10297000B82649816A8101C0B12CE42FE295EF703D
:10298000F0E0E859FF4F0C94BD29842F807F142F6D
:102990001F70882311F01295107FFF20C1F01123C2
:1029A00009F498C180E2860F883010F0611105C0EB
:1029B000812F6A830E944C1D04C0812F6A830E946C
:1029C0005C1D6A816A830E94951D6A8183C1862F7E
:1029D0006A830E9428146A81112309F4C9C180E224
:1029E000860F883010F0611104C0812F0E94521DA3
:1029F00003C0812F0E94621D0E94951DB9C1242F22
:102A0000207F842F8F70203211F08295807F662383
:102A100019F06130B9F020C0FF2049F0EE2009F430
:102A20000FC1F1E0EF120CC10E947C1DA1C1EE208C
:102A300021F091E0E91609F49BC189830E947F1D72
:102A4000898104C1FF2029F0E1E0EE1508F490C16E
:102A5000F7C0E1108DC1FAC0FF2021F0EE2009F48B
:102A6000EFC038C1EE2009F4F1C03AC1242F2695F9
:102A70002695237030E02115310521F021303105F4
:102A800061F076C1FF2021F0862F942F937002C051
:102A900080E090E00E940B126BC1FF2021F0862F96
:102AA000942F937002C080E090E00E94211260C1D8
:102AB000862FFF2019F00E94E31F02C00E944B20C6
:102AC0000E94D02055C1842F837009F04EC0F110B0
:102AD0004FC1262F229526952770220F220F862F71
:102AE0008F70C82ED12CE12CF12C022E04C0CC0CFE
:102AF000DD1CEE1CFF1C0A94D2F764FF10C06FE0CF
:102B000070E080E090E004C0660F771F881F991F77
:102B10002A95D2F7609570958095909503C060E0F6
:102B200070E0CB01242F26952695237030E02230CB
:102B3000310569F02330310589F06C297D298E2912
:102B40009F292130310571F00E94421B11C16C296F
:102B50007D298E299F290E945C1B0AC10E94421B6D
:102B6000C701B6010E94281B03C1FF2019F0842F62
:102B7000817001C08695882309F4FAC0262F22951A
:102B800026952770220F220F862F8F70C82ED12CEA
:102B9000E12CF12C022E04C0CC0CDD1CEE1CFF1C21
:102BA0000A94D2F764FF10C06FE070E080E090E01C
:102BB00004C0660F771F881F991F2A95D2F760956A
:102BC00070958095909503C060E070E0CB01242F54
:102BD00026952695237030E02230310569F02330A8
:102BE000310589F06C297D298E299F2921303105F5
:102BF00071F00E94161CBCC06C297D298E299F296A
:102C00000E94301CB5C00E94161CC701B6010E946C
:102C1000FC1BAEC0062F10E0F801E05EF109E531C3
:102C2000F10508F053C0E858FF4F0C94BD29162F4A
:102C30001F70842F8F71FF2031F00E94951B812F10
:102C40000E94771495C00E94B61B812F0E947E14AB
:102C50008FC0FF2039F0E1108BC0842F8F710E944C
:102C6000DB1B86C0F1E0FE1508F482C0F6CFFF2022
:102C700039F0842F8F710E94951B7AC0FF20C9F311
:102C8000842F8F710E94B61B73C0FF2029F0842F00
:102C90008F710E94801B6CC00E94761B69C0FF2050
:102CA00051F0142F1F71812F0E94951B63E0812F1B
:102CB0000E94A41C5DC081E00E94AD1C81E08E15C5
:102CC00008F056C082E00E94AD1C52C0FF2031F0D7
:102CD000EE2079F2862F0E9460134AC0EE2081F226
:102CE000862F0E94281444C04F70C4010E947405AE
:102CF0000E949D1A3DC0623FA9F128F4603F49F04F
:102D0000613FE1F020C0643FA1F050F0653F69F001
:102D10001AC0FF2049F180913D0221E0822702C0C4
:102D200081E08F2580933D021FC0F1101DC081E01E
:102D3000F9CFF11019C010923D0216C0EE2091F0AB
:102D4000F11012C0E8CFEE2069F0862F49836A8324
:102D5000FF2019F00E94601302C00E9428144981CC
:102D60006A8102C0F0923D024F70C4010E94B70711
:102D7000BB20F1F00E94A01C80FD1AC0F401128259
:102D80000E949A1C0E94951BC4010E94E6160E9494
:102D90009A1C0F900F90DF91CF911F910F91FF9090
:102DA000EF90DF90CF90BF909F908F900C94B61BC8
:102DB0000F900F90DF91CF911F910F91FF90EF90A7
:102DC000DF90CF90BF909F908F9008950F931F93A7
:102DD000CF93DF93EC01288139818B819C81892BF2
:102DE00031F03F3F11F080E003C02F3FE1F781E079
:102DF000811113C0CE010E942C06882371F06881D6
:102E000079818A810E94961C8C010E944A1C0E9432
:102E10001D1BB801CE010E948514DF91CF911F9137
:102E20000F9108950E94691D0E94791D0E943E1D08
:102E30000E94951D0E947C210E94D02080E090E09D
:102E40000E940B1280E090E00C9421120E94591D08
:102E50000C9412170E948B1CE92FE295EF70F0E0A2
:102E60003297EE30F105B8F4E357FF4F0C94BD29CB
:102E7000803F59F018F4803E70F407C0843F59F445
:102E800004C0803E10F0813F31F481E0089593FB4F
:102E9000882780F9089580E00895CF93DF9300D0CC
:102EA00000D01F92CDB7DEB70F900F900F900F900C
:102EB0000F90DF91CF910895CF93DF9300D000D092
:102EC00000D0CDB7DEB726960FB6F894DEBF0FBEA2
:102ED000CDBFDF91CF9108951F93CF93DF93C09122
:102EE0003E0216E080913F02C81799F0D0E01C9F87
:102EF000F0011D9FF00D1124E05CFD4F40815181D8
:102F000062817381848195810E945C172196C770CC
:102F1000E9CFDF91CF911F910895409170025091B8
:102F200071026091720270917302809174029091AB
:102F300075020C945C17CF938091750282958F7007
:102F400009F05FC080917202882309F45AC0209171
:102F50003E02A0913F0260917002709171028091D7
:102F600073029091740231E06F3F09F030E0B32FAB
:102F7000C6E02A1709F445C0009721F07F3F21F4ED
:102F80004B2F03C041E001C040E030E040FD35C0C0
:102F9000C29FF001C39FF00D1124E05CFD4F418101
:102FA00074132BC04081641328C04281411125C095
:102FB000438154814817590710F441505109481B67
:102FC000590B483C5105C8F4809175028F7080619F
:102FD0008093750286E0829FF001839FF00D11249B
:102FE000EB5BFD4F80818F708061808380E792E092
:102FF0000E94E616CF910C946C172F5F3F4F2770FD
:10300000B8CFCF910895CF92DF92EF92FF920F93B6
:103010001F93CF93DF93CDB7DEB762970FB6F894C7
:10302000DEBF0FBECDBF8C0185E0F801DE011D962D
:1030300001900D928A95E1F7D8014C9111965C911F
:10304000119712966C9112971396ED90FC9014972D
:1030500070917002E09171022091730230917402BC
:103060002115310531F0EF3F31F481E07F3F19F454
:1030700003C081E001C080E0B82FB170CB2E80FD8D
:103080006CC1D0907202DD2009F4F5C0F091750298
:10309000E216F30638F0C701821B930B883C9105BA
:1030A00048F09BC0209530952E0D3F1D283C3105E2
:1030B00008F093C08F2F807F09F052C0E51314C031
:1030C000741312C0D62E61110FC0FF70F061F0931F
:1030D00075020E948D1780E792E00E94E6168091AB
:1030E0007502F80185836CC1EF2831F05F3F31F440
:1030F00081E04F3F19F403C081E001C080E080FD12
:1031000003C081E0862701C080E0F82FF170FF2E18
:1031100080FF1CC080913E0220913F0236E0821762
:1031200009F428C190E0389FF001399FF00D112477
:10313000E05CFD4F7181571306C07081471303C0D7
:103140007281671303C001968770E9CFD62E66237C
:1031500009F436C18091750281608093750253C075
:10316000E51308C0741306C0611104C0D801159698
:10317000FC93AEC04D875E878D859E856A8B0E94CD
:103180002A176A89882329F1D62E662311F1209106
:103190007502822F82958F7090E002970CF460C0C8
:1031A000809170029091710298878F831986FB86B7
:1031B000EA862C87CE01079651C0E51731F14D877D
:1031C0005E878D859E856A8B0E942A176A89811188
:1031D0002EC0C8010E94E616A4C08F2F807F69F719
:1031E0007E2DF98AE88A89890E944D1780E792E04E
:1031F0000E94E616E0E7F2E086E0DF011D928A9584
:10320000E9F70E948D17D12CDBC07413D8CF611160
:10321000D6CFD8011596FC93C8010E94E616E0E7C8
:10322000F2E086E0DF011D928A95E9F7C9C0D62E4B
:10323000662379F220917502822F82958F7090E03B
:10324000029774F080917002909171029A83898341
:103250001B82FD82EC822E83CE0101960E94E6162F
:1032600086E0F801A0E7B2E001900D928A95E1F7BF
:103270000E949B176FC0E216F30628F0C701821B5D
:10328000930B9C0104C0209530952E0D3F1D283CCA
:10329000310508F052C0D62E662309F49ACFE51303
:1032A0002CC074132AC08091750280FD1DC0982F18
:1032B00092959F70C9F0D80115968C9315979F3001
:1032C00039F09F5F9295907F8F70892B15968C9324
:1032D000C8010E94E61686E0F801A0E7B2E001907E
:1032E0000D928A95E1F736C086E0F801A0E7B2E0DA
:1032F00001900D928A95E1F763C04D875E878D85B9
:103300009E850E942A17882379F086E0F801A0E7BD
:10331000B2E001900D928A95E1F70E949B170E94FE
:103320008D17DD24D3944CC0809175028160809309
:103330007502C8010E94E61643C07E2DF98AE88A0C
:1033400089890E944D17E0E7F2E086E0DF011D92D7
:103350008A95E9F70E948D1733C0662309F439CFA7
:103360004D875E878D859E850E942A17882309F4E4
:1033700030CFCBCF4D875E878D859E850E948B1C7D
:10338000292F22952F7030E0223031052CF49F70C8
:1033900041F0811106C00CC0243031052CF49F701F
:1033A00049F4805E883020F0C8010E94E616CF2CD8
:1033B000DC2C06C0D80115969C91907F91F7F8CF30
:1033C0008D2D62960FB6F894DEBF0FBECDBFDF9194
:1033D000CF911F910F91FF90EF90DF90CF900895C4
:1033E0001F93CF93DF93CDB7DEB72C970FB6F8942A
:1033F000DEBF0FBECDBF4F83588769877A878B8723
:103400009C87CE0107960E9403188823C1F02F8164
:1034100038858A859B85892B31F03F3F11F080E00C
:1034200003C02F3FE1F781E0811147C04F815885EC
:1034300069857A858B859C850E945C173EC086E0F5
:10344000FE013796DE01119601900D928A95E1F703
:10345000FF81E8854A855B854115510531F0EF3FD5
:1034600031F481E0FF3F19F403C081E001C080E046
:1034700080FD23C020913F0230E0C9010196877092
:10348000992760913E0270E086179707F1F1F98362
:10349000EA835D834C8396E0929FD001939FB00DA9
:1034A0001124A05CBD4FFE01319601900D929A95BA
:1034B000E1F780933F020E946C1716E080913E0274
:1034C00090913F02891779F1189FC0011124805C07
:1034D0009D4F0E940318882331F1E0913E021E9F08
:1034E000F0011124E05CFD4F4081518162817381C4
:1034F000848195810E945C1780913E0290E0019644
:103500008770992780933E02D9CF0E942617109288
:103510003F0210923E02E0E7F2E086E0DF011D92FA
:103520008A95E9F7CACF2C960FB6F894DEBF0FBE86
:10353000CDBFDF91CF911F910895EF92FF920F932E
:103540001F93CF93DF93FC01009709F46FC0F12C18
:10355000EE24E394EF0121968491843740F4843083
:1035600008F055C0813081F0823021F15FC085378D
:1035700009F447C0C0F19CE7980F903708F056C097
:103580008F770E94281445C08F010E5F1F4FFE01E8
:10359000849190E2980F983050F48770FE2D01C00E
:1035A000FF0F8A95EAF78F2F0E946C1D15C00E94AD
:1035B000601314C08F010E5F1F4FFE01849190E2D3
:1035C000980F983068F48770FE2D01C0FF0F8A9520
:1035D000EAF78F2F0E94721D0E94951DE80119C005
:1035E0000E942814FBCFCF010296FE01C491CC2388
:1035F00061F0EFE9FFE03197F1F700C00000C15042
:10360000F6CFCF010296FE01F490EC0102C00E94B9
:1036100060138F2D882341F0EFE9FFE03197F1F738
:1036200000C000008150F6CFFE0194CFDF91CF9112
:103630001F910F91FF90EF900895089560937A0283
:1036400070937B0280937C0290937D020C941217FE
:103650000F931F9300917A0210917B0220917C02BC
:1036600030917D02062B172B282B392B00937A02E1
:1036700010937B0220937C0230937D021F910F9167
:103680000C9412170F931F9300917A0210917B02F2
:1036900020917C0230917D020623172328233923B1
:1036A00000937A0210937B0220937C0230937D0278
:1036B0001F910F910C9412170F931F9300917A0290
:1036C00010917B0220917C0230917D020627172702
:1036D0002827392700937A0210937B0220937C02DB
:1036E00030937D021F910F910C9412171092760265
:1036F0001092770210927802109279020C941217AD
:1037000041E050E060E070E004C0440F551F661FC8
:10371000771F8A95D2F74093760250937702609391
:103720007802709379020C94121741E050E060E047
:1037300070E004C0440F551F661F771F8A95D2F7AB
:103740008091760290917702A0917802B0917902EF
:10375000842B952BA62BB72B809376029093770220
:10376000A0937802B09379020C94121741E050E0D4
:1037700060E070E004C0440F551F661F771F8A95F4
:10378000D2F7409550956095709580917602909112
:103790007702A0917802B091790284239523A62321
:1037A000B7238093760290937702A0937802B09328
:1037B00079020C94121741E050E060E070E004C020
:1037C000440F551F661F771F8A95D2F780917602A6
:1037D00090917702A0917802B09179028427952781
:1037E000A627B7278093760290937702A09378025A
:1037F000B09379020C9412170F931F9300917602E5
:10380000109177022091780230917902062B172BC4
:10381000282B392B0093760210937702209378029D
:10382000309379021F910F910C9412170F931F93ED
:1038300000917602109177022091780230917902FE
:103840000623172328233923009376021093770247
:1038500020937802309379021F910F910C941217E4
:103860000F931F93009176021091770220917802B6
:1038700030917902062717272827392700937602E7
:103880001093770220937802309379021F910F9161
:103890000C9412170895CF92DF92EF92FF920F933C
:1038A0001F93CF93DF93EC01C0907A02D0907B02FC
:1038B000E0907C02F0907D028091760290917702F8
:1038C000A0917802B0917902C82AD92AEA2AFB2A63
:1038D0000FE110E0B701A601002E04C076956795B0
:1038E000579547950A94D2F740FD05C0015011093C
:1038F00088F780E007C0BE01802F0E94D2070197A1
:10390000A9F3802FDF91CF911F910F91FF90EF903E
:10391000DF90CF900895CF93DF93EC010E944B1C72
:10392000BE010E94D207DF91CF910895CB010E9482
:103930008B1C089580917E028595859585950895C7
:1039400080917E028770089598E0899F90011124EC
:10395000622B60937E020C94951B40917E028095B1
:10396000842380937E02982F977069F450E0282F6B
:10397000332727FD30954217530729F08595859504
:1039800085950C94B61B089590917E02977081E006
:1039900009F480E00895909114019923D9F0909151
:1039A0001A0397FF17C0982F9695969596959F3175
:1039B00088F5E0910301F0910401E90FF11D877092
:1039C00021E030E001C0220F8A95EAF78181822B45
:1039D00081830895409103015091040120E030E07B
:1039E0009FEFFA01E20FF31F6281681799F09F3F82
:1039F00019F4611101C0922F2F5F3F4F2E31310515
:103A000081F79F3F39F0FA01E90FF11D97FDFA9513
:103A1000828308950895909114019923E1F0909183
:103A20001A0397FF18C0982F9695969596959F31F3
:103A300020F5E0910301F0910401E90FF11D877079
:103A400021E030E001C0220F8A95EAF720958181BC
:103A5000282321830895409103015091040120E01F
:103A600030E0FA01E20FF31F9281981301C0128235
:103A70002F5F3F4F2E313105A1F7089581E090E08F
:103A8000E0910301F0910401E80FF91F1082019603
:103A900080329105A9F708959091A202982B9093F6
:103AA000A202089580959091A20298239093A20279
:103AB00008951092A20208959091A102982B9093DC
:103AC000A102089580959091A10298239093A1025C
:103AD00008951092A10208959091A002982B9093BE
:103AE000A002089580959091A00298239093A0023F
:103AF00008951092A002089580937F020895109275
:103B00007F020895409103015091040120E030E0CC
:103B100080E0FA01E20FF31F918191118F5F2F5F17
:103B20003F4F2F313105A9F70895E0910301F0913E
:103B300004018091A2028083E0910301F0910401CD
:103B400080819091A102892B8083E0910301F09103
:103B5000040180819091A002892B808390917F0243
:103B6000992361F0E0910301F09104018081892B98
:103B700080830E94821D811110927F028091030137
:103B8000909104010C94F511CF92DF92EF92FF9285
:103B90000F931F936C01EE24FF24C114D104E104A0
:103BA000F10421F46B017C0180E001C080E1332746
:103BB0002F2D1E2D0D2D011511052105310519F093
:103BC000885F6801790197018601A4E03695279501
:103BD00017950795AA95D1F701151105210531050E
:103BE00019F08C5F6801790197018601F2E0369542
:103BF000279517950795FA95D1F701151105210518
:103C0000310519F08E5F68017901B701A60176953B
:103C1000679557954795452B462B472B09F08F5FA6
:103C20001F910F91FF90EF90DF90CF9008956DEE70
:103C30007EEF80E090E00E94F52960E082E090E075
:103C40000E94D72960E083E090E00E94D72960E0DD
:103C500084E090E00E94D72960E085E090E00E9437
:103C6000D72940E050E0BA0188E090E00C94E929BF
:103C700080E090E00E94D12921E08D3E9E4F09F026
:103C800020E0822F089582E090E00C94C32983E025
:103C900090E00C94C32984E090E00C94C329682F31
:103CA00084E090E00C94D72980912003843021F1A6
:103CB0001092A40220E488E190E00FB6F894A89551
:103CC000809360000FBE2093600080E00E94B507E3
:103CD00083B7817F846083BF83B7816083BF78941B
:103CE000889583B78E7F83BF88E10FB6F894809361
:103CF0006000109260000FBE08950895CF930E9457
:103D00005C040E946F040E947D1EC0E08C2F0E9404
:103D10006D05811105C0CF5FCE30C1F780E001C0D5
:103D200081E0CF9108950E9426170E94E9110C941A
:103D3000B5071F920F920FB60F9211248F939F9386
:103D4000AF93BF938091A402811113C08091160399
:103D500090911703A0911803B09119034196A11DEA
:103D6000B11D8093160390931703A0931803B0938B
:103D70001903BF91AF919F918F910F900FBE0F903C
:103D80001F90189582E084BD93E095BD9AEF97BD92
:103D900080936E0008952FB7F89480911603909148
:103DA0001703A0911803B09119032FBF0895CF9264
:103DB000DF92EF92FF920F931F932FB7F8944091E9
:103DC00016035091170360911803709119032FBFC8
:103DD0006A017B01EE24FF248C0120E030E0C01654
:103DE000D106E206F30610F441505109481B590B65
:103DF000CA011F910F91FF90EF90DF90CF9008952F
:103E000078941F920F920FB60F9211248F939F9365
:103E1000AF93BF938091160390911703A09118035D
:103E2000B09119030196A11DB11D809316039093C3
:103E30001703A0931803B0931903BF91AF919F91FB
:103E40008F910F900FBE0F901F9018950E947E25A6
:103E5000F8942FEF87EA91E6215080409040E1F7F7
:103E600000C0000087E090EBDC0180932903909371
:103E70002A03A0932B03B0932C032CE088E190E05D
:103E80000FB6F894A895809360000FBE2093600051
:103E9000FFCF0E94381E811102C00E94171E0E948F
:103EA000431E8093A3020E944B1E90E090931B033D
:103EB00080931A030E94471E682F70E080E090E014
:103EC0000C941E1B8091A80280FF0BC0609108011A
:103ED00085E0689FB0011124759567957595679584
:103EE0002AC081FF09C06091080185E0689FB00188
:103EF0001124759567951FC082FF07C06091080166
:103F000085E0689FB001112416C04091A9024423A6
:103F1000C9F060910701461788F72091080185E0F4
:103F2000289F90011124429FC001439F900D1124AE
:103F300070E00E94A9296038710540F4611571058F
:103F400039F002C065E070E0862F08958FE708958C
:103F500081E008958091A80280FF08C06091060169
:103F600070E0759567957595679521C081FF06C0CE
:103F70006091060170E07595679519C082FF04C0D5
:103F80006091060170E010C08091A9028823C1F001
:103F9000609105018617A0F790910601989FC001D6
:103FA000112470E00E94A9296038710528F4611578
:103FB000710521F0862F08958FE7089581E0089517
:103FC00061E070E0F4CF803F21F40E94621F819590
:103FD00004C0813F29F40E94621F8093AC020895BF
:103FE000823F21F40E94621F819504C0833F29F41F
:103FF0000E94621F8093AB020895893F19F40E94CA
:10400000AA1F05C08A3F31F40E94AA1F81958093A0
:10401000AD0208958B3F21F40E94AA1F819504C030
:104020008C3F29F40E94AA1F8093AE020895843F1A
:1040300021F48091AA02816017C0853F21F480910C
:10404000AA02826011C0863F21F48091AA02846096
:104050000BC0873F21F48091AA02886005C0883F89
:1040600031F48091AA0280618093AA0208958D3F65
:1040700021F48091A80281600BC08E3F21F48091D1
:10408000A802826005C08F3F29F48091A802846055
:104090008093A8020895803F39F48091AC0287FF95
:1040A0006CC01092AC0269C0813F29F48091AC02CF
:1040B0001816BCF362C09091AB02823F29F497FFBF
:1040C0005CC01092AB0259C0833F19F41916CCF3AF
:1040D00054C0893F41F48091AD0218160CF04DC0D8
:1040E0001092AD024AC08A3F29F48091AD0287FF49
:1040F00044C0F6CF8B3F39F48091AE0287FF3DC0BC
:104100001092AE023AC08C3F29F48091AE0218168C
:10411000BCF333C0843F21F48091AA028E7F17C084
:10412000853F21F48091AA028D7F11C0863F21F442
:104130008091AA028B7F0BC0873F21F48091AA0255
:10414000877F05C0883F31F48091AA028F7E8093DB
:10415000AA0213C08D3F21F48091A8028E7F0BC06C
:104160008E3F21F48091A8028D7F05C08F3F29F4F6
:104170008091A8028B7F8093A8028091AB0281116D
:104180000EC08091AC0281110AC08091AD028111F4
:1041900006C08091AE02811102C01092A90208955A
:1041A0008AEA92E00E9400120E94CB1E9093A6021F
:1041B0008093A50208951F93CF93DF938091A5026A
:1041C0009091A6020E94D71E4091A902442321F09B
:1041D0002091090130E006C02091A7025AE0259FF6
:1041E000900111248217930708F482C08091AB02DA
:1041F0001091AC02D091AD02C091AE02811107C006
:10420000111105C0D11103C0CC2309F471C04F3F77
:1042100019F04F5F4093A902181624F40E94621F00
:104220008093AB028091AB0287FF05C00E94621FA2
:1042300081958093AB02111624F40E94621F809333
:10424000AC028091AC0287FF05C00E94621F81957D
:104250008093AC026091AB02662339F11091AC02FD
:10426000112319F1772767FD7095872F972F0E94EB
:10427000A62823E333E343E35FE30E940A290E9475
:1042800073286093AB02612F772767FD7095872FA6
:10429000972F0E94A62823E333E343E35FE30E94C2
:1042A0000A290E9473286093AC021D1624F40E9410
:1042B000AA1F8093AD028091AD0287FF05C00E94C6
:1042C000AA1F81958093AD021C1624F40E94AA1F98
:1042D0008093AE028091AE0287FF05C00E94AA1FA4
:1042E00081958093AE02DF91CF911F910C94D020E5
:1042F000DF91CF911F910895EAEAF2E085E0DF01B6
:104300001D928A95E9F71092A9021092A8020895C9
:104310008091CF020895CF93DF9300D01F92CDB745
:10432000DEB720912003243019F523E029839B83F5
:104330008A832093E9008FEF9091E800815095FDEA
:1043400006C095ED9A95F1F700008111F5CF8091A7
:10435000E80085FF0DC040E050E063E070E0CE0172
:1043600001960E94EC238091E8008E778093E8000C
:104370000F900F900F90DF91CF910895CF93DF931F
:1043800000D01F92CDB7DEB720912003243031F545
:1043900022E02983805891099B838A8383E080935C
:1043A000E9008FEF9091E800815095FD06C095EDF2
:1043B0009A95F1F700008111F5CF8091E80085FF13
:1043C0000DC040E050E063E070E0CE0101960E9435
:1043D000EC238091E8008E778093E8000F900F9097
:1043E0000F90DF91CF910895209120032430F1F4B4
:1043F00022E02093E9002FEF3091E800215035FDB5
:1044000006C035ED3A95F1F700002111F5CF209166
:10441000E80025FF0BC040E050E065E070E00E943E
:10442000EC238091E8008E778093E8000895CF9385
:10443000DF93EC0180912003843009F046C0909115
:1044400014019923D9F090911A0397FF17C0809314
:10445000E9008FEF9091E800815095FD06C095E14D
:104460009A95F1F700008111F5CF8091E80085FF62
:104470002CC040E050E060E270E017C081E0809323
:10448000E9008FEF9091E800815095FD06C095ED11
:104490009A95F1F700008111F5CF8091E80085FF32
:1044A00014C040E050E068E070E0CE010E94EC23D0
:1044B0008091E8008E778093E80080E2FE01AFEA09
:1044C000B2E001900D928A95E1F7DF91CF910895C6
:1044D00080911F03811109C00E947E250E94DB2567
:1044E0008091E20084608093E200089510921F039F
:1044F0000895089508950C94931E42E061EC81E0C4
:104500000E94F82442E061EC82E00E94F82442E03C
:1045100061EC83E00E94F82442E261EC84E00C94B8
:10452000F82480912203833009F455C030F481309F
:1045300071F0823009F48EC008958A3009F47AC08F
:104540008B3009F460C0893009F09CC020C0809194
:104550002103813A09F096C08091E800877F80931B
:10456000E8008091250390912603892B21F060E0DB
:1045700080E090E003C060E28FEA92E070E00E9489
:1045800035248091E8008B778093E800089580912E
:104590002103813209F076C0809125039091260392
:1045A000009719F0039709F06DC08091E800877FAC
:1045B0008093E8008091E80082FD05C0809120038F
:1045C0008111F8CF5FC08091F1008093CF0280917C
:1045D000E8008B7753C080912103813A09F052C0E3
:1045E0008091250390912603892B09F04BC080917F
:1045F000E800877F8093E8008091E80080FFFCCF8F
:104600008091140136C0809121038132D9F58091C7
:10461000250390912603892BA9F58091E800877FD7
:104620008093E8000E942D2580912303809314013C
:104630000C94261780912103813221F58091E800A6
:10464000877F8093E8000E942D258091240380932A
:10465000D002089580912103813AA1F48091E8006D
:10466000877F8093E8008091E80080FFFCCF8091F5
:10467000D0028093F1008091E8008E778093E8006B
:104680000C942D25089584B7877F84BF88E10FB6E9
:10469000F89480936000109260000FBE80E88093D1
:1046A0006100109261000E9438120E947E250E94D3
:1046B000DB258091E20084608093E20078940E9480
:1046C00056280E943A128AE091E00E94E4118091FB
:1046D0002003853069F40E94541E80911E038823B4
:1046E000B1F30E947E1E882391F30E94D623EFCF60
:1046F0000E9442120E94B111EACF292F33272330A2
:104700003105A9F06CF42130310509F442C02230A2
:10471000310509F043C08DE690E020E935E042C064
:1047200021323105C9F02232310519F137C09927FC
:104730008130910541F08230910541F0892B71F56E
:10474000ECE8F5E005C0E4E7F5E002C0ECE5F5E0F3
:10475000849190E09F0126C0643000F5E62FF0E0E0
:10476000EE0FFF1FE753FE4F2081318189E090E07B
:1047700019C0643098F4E62FF0E0DF01AA0FBB1FE8
:10478000AF53BE4F2D913C91E354FE4F808190E09A
:1047900009C082E190E02DEF35E004C080E090E0B8
:1047A00020E030E0FA0131832083089580E189BD63
:1047B00082E189BD09B400FEFDCF8091D8008F7DD4
:1047C0008093D8008091E00082608093E000809127
:1047D000E00081FDFCCF0895CF92DF92EF92FF922F
:1047E0000F931F93CF93DF937C018B01EA010E940B
:1047F0004E25811131C0209731F088819981081BA5
:10480000190BE80EF91EC12CD12C0115110519F157
:104810008091E80085FD14C08091E8008E77809338
:10482000E800209741F0888199818C0D9D1D998326
:10483000888385E011C00E944E25882331F30CC087
:10484000F70181917F018093F10001501109FFEF81
:10485000CF1ADF0ADACF80E0DF91CF911F910F915D
:10486000FF90EF90DF90CF90089520912703309133
:1048700028032617370748F06115710539F4209190
:10488000E8002E772093E80001C0B901FC0120E088
:1048900061157105B9F180912003882309F440C0A6
:1048A000853009F43FC08091E80083FD3DC08091D0
:1048B000E80082FF06C08091E80082FF26C080E009
:1048C00008958091E80080FFE3CF2091F30080916C
:1048D000F20090E0922B6115710551F0883091053E
:1048E00038F421912093F100615071090196F3CFC2
:1048F00021E0089709F020E08091E8008E7780930E
:10490000E800C6CF2111C7CFD6CF809120038823DE
:1049100039F0853039F08091E80083FFCCCF04C0B6
:1049200082E0089583E0089581E0089520912703AF
:10493000309128032617370748F06115710539F4BF
:104940002091E8002E772093E80001C0B901FC0116
:1049500020E061157105C1F180912003882309F4DD
:1049600041C0853009F440C08091E80083FD3EC01D
:104970008091E80082FF06C08091E80082FF27C096
:1049800080E008958091E80080FFE3CF2091F3005C
:104990008091F20090E0922B6115710559F08830FA
:1049A000910540F424912093F100319661507109F2
:1049B0000196F2CF21E0089709F020E08091E8000D
:1049C0008E778093E800C5CF2111C6CFD5CF8091D7
:1049D0002003882339F0853039F08091E80083FF87
:1049E000CBCF04C082E0089583E0089581E008956C
:1049F000982F973058F59093E900981739F07091F7
:104A0000EC002091ED005091F00003C0242F762F90
:104A100050E021FF19C03091EB003E7F3093EB0056
:104A20003091ED003D7F3093ED003091EB0031602F
:104A30003093EB007093EC002093ED005093F00066
:104A40002091EE0027FF07C09F5FD3CF8F70809328
:104A5000E90081E0089580E008958091210387FDB9
:104A600005C08091E80080FF0EC012C08091E80070
:104A700082FD05C0809120038111F8CF08958091B7
:104A8000E8008B7708C0809120038111EACF089558
:104A90008091E8008E778093E80008958091E4008B
:104AA0009091E50045E62091EC0020FF21C0209187
:104AB000E80020FD21C020912003222389F0253029
:104AC00089F02091EB0025FD0FC02091E40030918A
:104AD000E5002817390739F3415041F0C901E3CF08
:104AE00082E0089583E0089581E0089584E00895C8
:104AF0002091E80022FFDFCF80E008950E94EC259E
:104B00000E94F425E0EEF0E0808181608083E8ED92
:104B1000F0E080818F77808319BCA7EDB0E08C91A5
:104B20008E7F8C9380818F7E808310921F030895E7
:104B30000F931F93CF93DF930E94EC250E94F425DF
:104B4000C8EDD0E088818F778883888180688883EA
:104B500088818F7D888319BC1092200310921C03DA
:104B600010921E0310921D0300EE10E0F8018081E8
:104B70008B7F808388818160888342E060E080E071
:104B80000E94F824E1EEF0E080818E7F8083E2EEE7
:104B9000F0E0808181608083808188608083F8017B
:104BA00080818E7F8083888180618883DF91CF912F
:104BB0001F910F910895E8EDF0E080818F7E808352
:104BC000E7EDF0E080818160808384E082BF81E056
:104BD00080931F030C949825E8EDF0E080818E7F90
:104BE00080831092E20008951092DA001092E100A2
:104BF00008951F920F920FB60F9211242F933F9397
:104C00004F935F936F937F938F939F93AF93BF93D4
:104C1000EF93FF938091E10082FF0BC08091E2004F
:104C200082FF07C08091E1008B7F8093E1000E94AA
:104C300055288091DA0080FF1FC08091D80080FF46
:104C40001BC08091DA008E7F8093DA008091D900BA
:104C500080FF0DC080E189BD82E189BD09B400FEFD
:104C6000FDCF81E0809320030E94682205C019BC1B
:104C7000109220030E9476228091E10080FF19C0EB
:104C80008091E20080FF15C08091E2008E7F8093CA
:104C9000E2008091E20080618093E2008091D80080
:104CA00080628093D80019BC85E0809320030E9425
:104CB0007A228091E10084FF30C08091E20084FF7D
:104CC0002CC080E189BD82E189BD09B400FEFDCF21
:104CD0008091D8008F7D8093D8008091E1008F7EF5
:104CE0008093E1008091E2008F7E8093E2008091CA
:104CF000E20081608093E20080911C03882311F020
:104D000084E007C08091E30087FF02C083E001C018
:104D100081E0809320030E947B228091E10083FF49
:104D200029C08091E20083FF25C08091E100877F48
:104D30008093E10082E08093200310921C03809115
:104D4000E1008E7F8093E1008091E2008E7F80936E
:104D5000E2008091E20080618093E20042E060E046
:104D600080E00E94F8248091F00088608093F00039
:104D70000E947922FF91EF91BF91AF919F918F9106
:104D80007F916F915F914F913F912F910F900FBE47
:104D90000F901F9018951F920F920FB60F9211242B
:104DA0002F933F934F935F936F937F938F939F9333
:104DB000AF93BF93CF93EF93FF93C091E900CF7070
:104DC0008091EC001092E9008091F000877F809341
:104DD000F00078940E9407271092E9008091F0007B
:104DE00088608093F000C093E900FF91EF91CF912C
:104DF000BF91AF919F918F917F916F915F914F91F3
:104E00003F912F910F900FBE0F901F9018951F93F9
:104E1000CF93DF93CDB7DEB7AA970FB6F894DEBF76
:104E20000FBECDBFE1E2F3E08091F100819323E07A
:104E3000E932F207C9F70E9491228091E80083FFCE
:104E40001CC12091210330912203832F90E08A30EE
:104E5000910508F012C1FC01E556FF4F0C94BD29E5
:104E6000203881F0223809F008C1809125038F7025
:104E70008093E9008091EB0085FB882780F91092F0
:104E8000E90006C080911D0390911E03911182607C
:104E90009091E800977F9093E8008093F100109242
:104EA000F100C5C0822F8D7F09F0E7C0222319F0E1
:104EB000223061F0E2C080912303813009F0DDC02F
:104EC000333009F080E080931E0328C080912303D3
:104ED000811124C0209125032F7009F4CEC02093A6
:104EE000E9008091EB0080FF19C08091EB00333026
:104EF00011F4806211C080618093EB0081E090E04A
:104F0000022E01C0880F0A94EAF78093EA001092FB
:104F1000EA008091EB0088608093EB001092E9003A
:104F20008091E800877F86C02111A7C010912303DC
:104F30001F778091E3008078812B8093E30080913C
:104F4000E800877F8093E8000E942D258091E8008B
:104F500080FFFCCF8091E30080688093E300112301
:104F600011F083E001C082E08093200386C02058C6
:104F7000223008F082C080912303909124038C3D5D
:104F800023E0920779F583E08A838AE289834FB729
:104F9000F894DE01139620E03EE051E2E32FF0E0CA
:104FA00050935700E49120FF03C0E295EF703F5FFC
:104FB000EF708E2F90E0EA3010F0C79601C0C096D7
:104FC0008D939D932F5F243149F74FBF8091E80067
:104FD000877F8093E8006AE270E0CE0101960E942C
:104FE000352414C0AE014F5F5F4F609125030E94CE
:104FF0007D23009709F441C02091E800277F20938A
:10500000E800BC0189819A810E9496248091E80081
:105010008B778093E80031C0203879F58091E800E3
:10502000877F8093E80080911C038093F10080913A
:10503000E8008E778093E8000E942D251EC0211184
:105040001CC0909123039230C0F48091E800877FC8
:105050008093E80090931C030E942D2580911C03EF
:10506000811104C08091E30087FF02C084E001C089
:1050700081E0809320030E947D228091E80083FFDD
:105080000AC08091E800877F8093E8008091EB0060
:1050900080628093EB00AA960FB6F894DEBF0FBE35
:1050A000CDBFDF91CF911F9108950895CF93809147
:1050B00020038823B1F08091E9008F709091EC007B
:1050C00090FF02C090E801C090E0C92FC82B109259
:1050D000E9008091E80083FD0E940727CF70C0930C
:1050E000E900CF91089504D06894B1118DC008955E
:1050F00070D088F09F5790F0B92F9927B751A0F042
:10510000D1F0660F771F881F991F1AF0BA95C9F75B
:1051100012C0B13081F077D0B1E0089574C0672F2C
:10512000782F8827B85F39F0B93FCCF3869577950B
:105130006795B395D9F73EF49095809570956195F4
:105140007F4F8F4F9F4F0895E89409C097FB3EF41F
:1051500090958095709561957F4F8F4F9F4F9923C4
:10516000A9F0F92F96E9BB279395F6958795779542
:105170006795B795F111F8CFFAF4BB0F11F460FF02
:105180001BC06F5F7F4F8F4F9F4F16C0882311F05A
:1051900096E911C0772321F09EE8872F762F05C06E
:1051A000662371F096E8862F70E060E02AF09A9509
:1051B000660F771F881FDAF7880F9695879597F9FE
:1051C000089557FD9058440F551F59F05F3F71F0F7
:1051D0004795880F97FB991F61F09F3F79F087955E
:1051E0000895121613061406551FF2CF4695F1DFE7
:1051F00008C0161617061806991FF1CF8695710577
:10520000610508940895E894BB2766277727CB01AA
:1052100097F908950BD078C069D028F06ED018F0B7
:10522000952309F05AC05FC01124EECFCADFA0F366
:10523000959FD1F3950F50E0551F629FF001729F2B
:10524000BB27F00DB11D639FAA27F00DB11DAA1F4A
:10525000649F6627B00DA11D661F829F2227B00D97
:10526000A11D621F739FB00DA11D621F839FA00D22
:10527000611D221F749F3327A00D611D231F849F72
:10528000600D211D822F762F6A2F11249F575040C9
:105290008AF0E1F088234AF0EE0FFF1FBB1F661F64
:1052A000771F881F91505040A9F79E3F510570F01D
:1052B00014C0AACF5F3FECF3983EDCF38695779558
:1052C0006795B795F795E7959F5FC1F7FE2B880F18
:1052D000911D9695879597F9089597F99F6780E8AE
:1052E00070E060E008959FEF80EC089500240A9438
:1052F0001616170618060906089500240A941216B1
:105300001306140605060895092E0394000C11F4E3
:10531000882352F0BB0F40F4BF2B11F460FF04C090
:105320006F5F7F4F8F4F9F4F0895AA1BBB1B51E1AB
:1053300007C0AA1FBB1FA617B70710F0A61BB70B05
:10534000881F991F5A95A9F780959095BC01CD01AA
:10535000089597FB072E16F4009407D077FD09D027
:105360000E94952907FC05D03EF4909581959F4FAA
:105370000895709561957F4F0895EE0FFF1F05907A
:10538000F491E02D0994F999FECF92BD81BDF89A70
:10539000992780B50895A6E1B0E044E050E00C9470
:1053A000FD29A8E1B0E042E050E00C94FD29262F51
:1053B000F999FECF92BD81BDF89A019700B402160B
:1053C00039F01FBA20BD0FB6F894FA9AF99A0FBEB9
:1053D00008950396272F0E94D8290E94D729252FA8
:1053E0000E94D829242F0C94D8290196272F0E9497
:1053F000D8290C94D729DC01CB01FC01F999FECF07
:1054000006C0F2BDE1BDF89A319600B40D9241504C
:0A5410005040B8F70895F894FFCF5C
:10541A000520FF8002280805021488211722F4219A
:10542A00BE218B2101000D010D020D030D040D0596
:10543A000D000C010C020C030C040C050C000B01F2
:10544A000B020B030B040B050B000A010A020A03E9
:10545A000A040A050A0009010902090309040905DF
:10546A0009000801080208030804080508000701E2
:10547A0007020703070407050700060106020603D9
:10548A0006040605060005010502050305040505CF
:10549A0005000401040204030404040504000301D2
:1054AA0003020303030403050300020102020203C9
:1054BA0002040205020001010102010301040105BF
:1054CA0001000001000200030004000500404D36FF
:1054DA0039CB067E0648060F06A205BB05D405EDA4
:0254EA000500BB
:00000001FF
